:020000040800F2
:10000000C87400243903000889550008614D0008B0
:1000100081550008510500087170000800000000BB
:10002000000000000000000000000000B1590008BE
:10003000D109000800000000F1560008E15900084D
:100040005303000853030008530300085303000838
:100050005303000853030008530300085303000828
:100060005303000853030008530300085303000818
:100070005303000853030008530300085303000808
:1000800053030008530300085303000853030008F8
:1000900053030008530300085303000853030008E8
:1000A00053030008530300085303000853030008D8
:1000B00053030008530300085303000853030008C8
:1000C00053030008530300085303000853030008B8
:1000D000530300086170000853030008530300082D
:1000E00053030008530300080000000053030008F6
:1000F0005303000853030008530300085303000888
:100100005303000853030008530300085303000877
:10011000895D000853030008215C000853030008B0
:100120005303000853030008530300085303000857
:100130005303000853030008530300085303000847
:1001400000000000000000000000000000000000AF
:100150005303000853030008530300085303000827
:100160005303000853030008530300085303000817
:100170005303000853030008530300085303000807
:1001800053030008530300085303000853030008F7
:1001900053030008530300085303000853030008E7
:1001A00053030008530300085303000853030008D7
:1001B00053030008530300085303000853030008C7
:1001C00053030008530300085303000853030008B7
:1001D00053030008530300085303000853030008A7
:1001E0005303000853030008530300085303000897
:1001F0005303000853030008530300085303000887
:100200005303000853030008530300085303000876
:100210005303000853030008530300085303000866
:1002200053030008530300085303000800000000B4
:1002300053030008530300080000000053030008A4
:100240005303000853030008530300085303000836
:100250005303000853030008530300085303000826
:100260005303000853030008530300085303000816
:100270005303000853030008530300080000000064
:100280005303000853030008530300080000000054
:10029000000000005303000800F002F800F03CF8F2
:1002A0000AA090E8000C82448344AAF10107DA45D1
:1002B00001D100F031F8AFF2090EBAE80F0013F0E7
:1002C000010F18BFFB1A43F001031847F487000021
:1002D00014880000103A24BF78C878C1FAD85207B1
:1002E00024BF30C830C144BF04680C6070470000B0
:1002F0000023002400250026103A28BF78C1FBD82F
:10030000520728BF30C148BF0B6070471FB508F0C7
:10031000EBFA1FBD10B510BD00F0E4F81146FFF771
:10032000F5FF06F0B1FE00F002F903B4FFF7F2FFAB
:1003300003BC00F005F90000094880470948004760
:10034000FEE7FEE7FEE7FEE7FEE7FEE7FEE7FEE785
:10035000FEE7FEE704480549054A064B70470000E2
:10036000515B000899020008C8440024C8740024A6
:10037000C8540024C854002453EA020C00F06980D9
:100380002DE9F04B4FF00006002B1FBFB3FA83F5A9
:1003900003FA05F424FA05F65E4012BF1643B2FADA
:1003A00082F502FA05F4C5F120051EBF22FA05FC0C
:1003B00044EA0C04203556EA044C4FEA144418BFB2
:1003C000641C4FF000084FF00009904271EB030CE1
:1003D00039D3002919BFB1FA81F701FA07F6B0FA4B
:1003E00080F700FA07F6C7F120071EBF20FA07FCC6
:1003F00046EA0C062037B6FBF4FCA7EB0507103FD6
:1004000007F01F0BCBF120062CFA06F60CFA0BFBBB
:1004100044BFB3460026202FA4BF5E464FF0000B1A
:100420005BEA060C08BF4FF0010B19EB0B0948EB18
:100430000608ABFB027C06FB02CC0BFB03CCC01B0B
:1004400071EB0C01C1E70B46024641464846BDE848
:10045000F08B13B5084318BF4FF0FF300146AFF3E0
:100460000080BDE81C4070474FF0000200B5134605
:1004700094469646203922BFA0E80C50A0E80C50C4
:10048000B1F12001BFF4F7AF090728BFA0E80C5075
:1004900048BF0CC05DF804EB890028BF40F8042B6E
:1004A00008BF704748BF20F8022B11F0804F18BFDB
:1004B00000F8012B704770477047704710B500F087
:1004C00009F8006810BD10B5044600F003F8046098
:1004D00010BD000000487047180000240048704715
:1004E000180000247546FFF7F9FFAE46050069467F
:1004F000534620F00700854618B020B5FFF72AFFC5
:10050000BDE820404FF000064FF000074FF0000814
:100510004FF0000BAC46ACE8C009ACE8C009ACE851
:10052000C009ACE8C00921F007018D46704710B53D
:100530000446AFF300802046BDE81040FFF7F5BE4B
:1005400001491820ABBEFEE72600020070470000FC
:10055000FEE700000000000084B040F244340421B3
:10056000C2F20044204603F067FD40F258500C21CF
:10057000C2F2004003F060FD40F228450C21C2F2B7
:100580000045284603F058FD0421284603F054FD99
:1005900040F2F8250421C2F20045284603F04CFD44
:1005A000002128464FF0000803F046FD00212046B8
:1005B00003F042FD40F290300021C2F2004003F00F
:1005C0003BFD40F2AC273C21C2F20047384603F025
:1005D0009BF840F2DC303C21C2F2004003F094F87A
:1005E00040F274403C21C2F2004003F08DF840F22A
:1005F000C04B3C21C2F2004B584603F085F89FEDFA
:10060000F08A40F2AC159FEDEF9AB0EE480A9FEDEC
:10061000EEAAF0EE490A9FEDEDBAB0EE4A1AF0EEFE
:100620004B1AB0EE4B2AC2F200450021284605F0D5
:100630004BF8B0EE480AF0EE490AB0EE4A1AF0EE76
:100640004B1AB0EE4B2A05F140000021029005F054
:100650003BF8B0EE480AF0EE490AB0EE4A1AF0EE66
:100660004B1AB0EE4B2A05F180000021019005F0F5
:100670002BF8B0EE480AF0EE490AB0EE4A1AF0EE56
:100680004B1AB0EE4B2A05F1C0000021009005F096
:100690001BF807F0C9FC40F2201940F2A456C2F240
:1006A0000049C2F200469FEDC48B09F10805C9F864
:1006B000040015E040F29031B1EE400AC2F2004170
:1006C0000968BCEEC00A81ED0D0A002141630521D5
:1006D000DBF80000C0F8248009F1040006F000FDFA
:1006E00040F234600B22C2F20040294604F04CFA7A
:1006F00006F0C2FC90ED010A90ED021A30EE012ADC
:1007000090ED044A31EE403A40F2AC1130EE410A2D
:10071000C2F2004132EE045A5C4633EE043AC8633A
:1007200034EE422A386830EE040ABA46BDEEC51AE5
:10073000BDEEC33A89ED051ABDEEC21A89ED063A3F
:10074000BDEEC00A89ED071A89ED080A406A00B2B9
:1007500000EE100A0846B8EEC00B20EE081BF6EEBD
:10076000C50AB7EEC10B89ED090A04F011FF40F28A
:10077000DC3089ED0D0AC2F200400068406A00B228
:1007800000EE100A0298B8EEC00B20EE081B99ED9F
:10079000060AF8EEC00AB7EEC10B89ED0A0A04F0AA
:1007A000F7FE40F2744089ED0E0AC2F20040006884
:1007B000406A00B200EE100A0198B8EEC00B20EEBD
:1007C000081B99ED070AF8EEC00AB7EEC10B89EDD8
:1007D0000B0A04F0DDFEDBF8000089ED0F0A406A29
:1007E00000B200EE100A0098B8EEC00B20EE081B15
:1007F00099ED080AF8EEC00AB7EEC10B89ED0C0AB4
:1008000004F0C6FE89ED100A4F4699ED050A99EDF0
:10081000061A99ED072A99ED083AB8EEC00A0222A5
:10082000B8EEC11A89ED150AD9E90901C9F84810CD
:10083000D9F82C10C9F84C10D9F83010C9F850105C
:10084000B8EEC20A47F8440F042089ED161AB8EE34
:10085000C31A89F800004FF60340ADF80E004FF4BC
:100860007F70ADF80C0041F2883330460DF10E0177
:1008700089ED170A89ED181A04F0FEF9202241F2D9
:1008800088333046394604F0F7F9022241F28833C2
:10089000304603A904F0F0F999ED0D0AB5EE400ACF
:1008A000F1EE10FA0CDD40F22840BCEEC00AC2F2B4
:1008B0000040006810EE101AC0F838800CE000BF4D
:1008C00040F22840B1EE400AC2F200400021006828
:1008D000BCEEC00A80ED0E0A01645746DAF800004B
:1008E000C0F8248099ED0E0AB5EE400AF1EE10FA38
:1008F0000CDD40F25850BCEEC00AC2F20040006865
:1009000010EE101AC0F840800CE000BF40F25850C2
:10091000B1EE400AC2F2004000210068BCEEC00AFD
:1009200080ED100A40F24430C2F20040006881635A
:1009300040F2DC31C2F200410968C1F8248099ED2F
:100940000F0AB5EE400AF1EE10FA0BDD40F2F82185
:10095000BCEEC00AC2F20041096810EE102AC1F8CC
:1009600038800BE040F2F821B1EE400AC2F20041BB
:1009700000220968BCEEC00A81ED0E0A4A6340F20B
:100980007441C2F200410968C1F8248099ED100A4F
:10099000B5EE400AF1EE10FA7FF78CAE40F29031DE
:1009A000BCEEC00AC2F200410968C1F8348010EE02
:1009B000101A8BE600BF00BF7B14AE47E17AF43F0C
:1009C00000401C460000C842000034430000000004
:1009D0007047000000000000EFF3108072B600BF07
:1009E000FEE70000000000002DE9F041044600F0A1
:1009F000EFFC1CB3054694F83500022822D140F2E2
:100A00000F462768C4F2020640F26F48B7426FF003
:100A10000E00C4F202081DDC6F21C4F202018F42F5
:100A20002ADC3F21C4F202018F4241DC1021C4F2D2
:100A300002018F4263D028215CE000BF0120BDE8A5
:100A4000F08100BF802060650120002184F834100F
:100A5000BDE8F08147451BDC40F23F41C4F2020192
:100A60008F422DDC40F21041C4F202018F4246D089
:100A700040F228413EE000BF9F21C4F202018F42B4
:100A800028DC7021C4F202018F4238D0882131E085
:100A900040F29F41C4F202018F4223DC40F27041D8
:100AA000C4F202018F422AD040F2884122E000BF06
:100AB0004021C4F202018F4221D058211AE000BF28
:100AC00040F24041C4F202018F4218D040F2584136
:100AD00010E000BFA021C4F202018F420FD0B82164
:100AE00008E000BF40F2B841C4F202018F4206D0D4
:100AF00040F2A041C4F202018F42394607D1394683
:100B0000386820F01E0041F8140B6FF080000A686E
:100B1000474500EA020008601ADC9F20C4F2020088
:100B2000874233DC5720C4F2020087425ADC10208F
:100B3000C4F20200874200F097802820C4F202002D
:100B4000874200F091804020C4F202008AE000BF9A
:100B500045F22F40C5F6020087422DDC40F2B74037
:100B6000C4F2020087424BDC40F27040C4F2020043
:100B7000874279D040F28840C4F20200874273D0A5
:100B800040F2A040C4F202006CE000BF40F22740F7
:100B9000C4F20200874243DCA020C4F20200874274
:100BA00062D0B820C4F2020087425DD040F210400B
:100BB000C4F2020056E000BF45F26B40C5F60200E9
:100BC00087423FDC45F23040C5F6020087424BD0F9
:100BD00045F24440C5F60200874245D045F25840F0
:100BE0003EE000BF5820C4F2020087423CD0702093
:100BF000C4F20200874237D08820C4F2020031E0FC
:100C000040F2B840C4F2020087422DD045F20840BD
:100C1000C5F60200874227D045F21C4020E000BF05
:100C200040F22840C4F2020087421DD040F240400A
:100C3000C4F20200874217D040F25840C4F20200CA
:100C400010E000BF45F26C40C5F6020087420BD0B1
:100C500045F29440C5F60200874205D045F2804037
:100C6000C5F60200874204D1206E016821F480712C
:100C70000160386820F00100386000BF3868C007A4
:100C800010D000F0A5FB401B0628F7D3202060659C
:100C9000032084F835000120002184F83410BDE8D9
:100CA000F08100BF2068B04210DC6F21C4F2020165
:100CB00088421DDC3F21C4F20201884234DC10214D
:100CC000C4F20201884255D028214FE040451BDC88
:100CD00040F23F41C4F2020188422DDC40F2104153
:100CE000C4F20201884245D040F228413EE000BFF4
:100CF0009F21C4F20201884228DC7021C4F2020163
:100D0000884237D0882131E040F29F41C4F202018D
:100D1000884223DC40F27041C4F20201884229D0AB
:100D200040F2884122E000BF4021C4F20201884223
:100D300020D058211AE000BF40F24041C4F2020125
:100D4000884217D040F2584110E000BFA021C4F201
:100D5000020188420ED0B82108E000BF40F2B8413D
:100D6000C4F20201884205D040F2A041C4F202015F
:100D700088425BD1D4E9161202F01F023F2303FA26
:100D800002F28A6040455BDC9F21C4F20201884286
:100D900014DC5721C4F20201884227DC1021C4F27E
:100DA0000201884200F0A2802821C4F20201884298
:100DB00000F09C804021C4F2020195E040F22741FE
:100DC000C4F2020188421FDCA021C4F20201884261
:100DD00000F08C80B821C4F20201884200F08680C5
:100DE00040F21041C4F202017EE000BF5821C4F27B
:100DF000020188427AD07021C4F20201884275D083
:100E00008821C4F202016FE040F22841C4F20201DD
:100E100088426BD040F24041C4F20201884265D062
:100E200040F25841C4F202015EE000BFD4E916125C
:100E300002F01F02012303FA02F24A604045A3DDDB
:100E400045F22F41C5F60201884217DC40F2B74156
:100E5000C4F20201884227DC40F27041C4F2020170
:100E6000884243D040F28841C4F2020188423DD01A
:100E700040F2A041C4F2020136E000BF45F26B41EE
:100E8000C5F6020188421FDC45F23041C5F6020179
:100E900088422BD045F24441C5F60201884225D054
:100EA00045F258411EE000BF40F2B841C4F20201D1
:100EB00088421BD045F20841C5F60201884215D090
:100EC00045F21C410EE000BF45F26C41C5F602013F
:100ED00088420BD045F29441C5F60201884205D004
:100EE00045F28041C5F6020188420BD1616EA26EC7
:100EF000E06E4A6030B1016821F480710160D4E98C
:100F00001C014160012084F835000020002184F894
:100F10003410BDE8F081000080B5D8B190F83510EC
:100F2000022919D140F20F420168C4F20202914233
:100F300016DC6F23C4F20203994227DC3F23C4F27C
:100F4000020399423EDC1023C4F2020399425FD0AF
:100F5000282359E0012080BD80214165012080BD0A
:100F600040F26F43C4F2020399421BDC40F23F435C
:100F7000C4F2020399422DDC40F21043C4F2020392
:100F8000994245D040F228433EE000BF9F23C4F27F
:100F90000203994228DC7023C4F20203994237D03D
:100FA000882331E040F29F43C4F20203994223DCDC
:100FB00040F27043C4F20203994229D040F28843C0
:100FC00022E000BF4023C4F20203994220D05823FC
:100FD0001AE000BF40F24043C4F20203994217D026
:100FE00040F2584310E000BFA023C4F2020399422C
:100FF0000ED0B82308E000BF40F2B843C4F20203A9
:10100000994205D040F2A043C4F20203994275D13F
:1010100091424FF0040280F8352011DC6F20C4F2B9
:101020000200814222DC3F20C4F20200814239DC0E
:101030001020C4F20200814259D0282054E000BFA1
:1010400040F26F40C4F2020081421BDC40F23F409C
:10105000C4F2020081422DDC40F21040C4F20200D2
:10106000814244D040F228403EE000BF9F20C4F2BD
:101070000200814228DC7020C4F20200814236D096
:10108000882031E040F29F40C4F20200814223DC1C
:1010900040F27040C4F20200814228D040F2884001
:1010A00022E000BF4020C4F2020081421FD058203D
:1010B0001AE000BF40F24040C4F20200814216D064
:1010C00040F2584010E000BFA020C4F2020081426C
:1010D0000DD0B82008E000BF40F2B840C4F20200D2
:1010E000814204D040F2A040C4F20200814208686C
:1010F00020F001000860002080BD00BF0A6822F0D7
:101100000E020A6045F25742C5F6020291420A6891
:1011100022F001020A600FDC45F22F42C5F60202FE
:10112000914219DC45F20842C5F60202914229D0EB
:1011300045F21C4222E000BF45F27F42C5F60202A2
:10114000914213DC45F25842C5F60202914219D091
:1011500045F26C4212E000BF45F23042C5F6020291
:1011600091420FD045F2444208E000BF45F294425C
:10117000C5F60202914205D045F28042C5F6020250
:1011800091421AD1D0E9181CD0E916E30A6822F47A
:1011900080720A6003F01F01012202FA01F1CEF809
:1011A0000410816ECCF80410C16E31B10A6822F4CB
:1011B00080720A60D0E91C124A60012180F8351063
:1011C000026D002180F834100AB1904700210846D2
:1011D00080BD0000000000002DE9F04F85B08E4674
:1011E00042F20042C5F602020A2102909042DEF865
:1011F000005008BF0921002D009100F0DD80029809
:10120000002400F12642009802F1FF7201274FEA04
:10121000B2230026092B4FF0000838BF1846CDF83E
:101220000CE000900EE000BFDEF8005008F101086D
:1012300035FA07F006F1020607F1010704F104048C
:1012400000F0BA80A7F1010A012000FA0AF315EABA
:101250000309E9D0DEF804B00BF003056A1E012A89
:1012600022D802984FEA4801D0F808C00191032122
:1012700001FA06F203992CEA020CD1F80CE00EFAFE
:1012800006F1DDF80CE041EA0C01816041686FEA8B
:10129000020CCBF3001299430346019802FA0AF2BA
:1012A000114359600CE000BF0320032D00FA06F043
:1012B000029B6FEA000C304602D13046032526E03F
:1012C000D968DEF8082001EA0C018240022D41EACB
:1012D0000201D9601BD102466FF0030000EA5A01F7
:1012E0000F20194404F01C0300FA03F51046D1F84E
:1012F00020E0039A2EEA0505DDF80CE012699A4019
:10130000029B2A430A62DEF804B00BF00305196859
:1013100005FA00F001EA0C011BF4403F40EA01002D
:1013200018603FF481AF44F2F44140F20845C5F63D
:101330000201C5F600050F23086840F002000860AE
:10134000086800F0020004902AF00300049904F0F9
:101350000C0142598B409A43009B03FA01F111435F
:1013600041514FF0B0452868DEF8041040EA090208
:10137000CB0258BF20EA09028B022A6040F2040522
:10138000C5F60005286840EA090258BF20EA0902AC
:101390008B032A60D5F8800040EA090258BF20EA92
:1013A0000902C903C5F88020E86F40EA090258BF66
:1013B00020EA0902EA6737E705B0BDE8F08F0000D0
:1013C00041F20000C5F600400068000C70470000C4
:1013D00044F27030C2F20040006870470000000024
:1013E00040F2000044F27031C2F20040C2F200410B
:1013F00000780A6810440860704700000000000090
:1014000080B5032000F0DCF801F072FA44F21841D4
:1014100048F67423C5F60201C0F600030A6809689D
:1014200001F00F01C2F30322595C9A5C01F01F0125
:1014300002F01F02D04040F20C02C2F2004220FA39
:1014400001F1116040F20801C2F2004108600F2072
:1014500000F00AF800281CBF012080BD00F058F8F9
:10146000002080BD00000000B0B58AB00F2842D82F
:101470000446362000222146002500F071F836206F
:1014800000F05EF840F20400C2F20040046044F252
:10149000E840C5F60200016841F0100101600068F3
:1014A00001A900F010000290029802A801F06CF966
:1014B000079C002C18BF012401F0BAF94DF6836196
:1014C000A040C4F21B3141F20002A0FB010140F236
:1014D0000C50C2F200404FF0FF33C4F20002026031
:1014E00003EB9141C0E9011540F2E731C0E9031572
:1014F00001F0DEFD10B101200AB0B0BD40F20C5089
:10150000C2F2004001F078FE0AB0B0BD0000000059
:1015100081B044F2F4400022C5F60200016841F0B7
:101520000201016000680F2100F0020000906FF0DE
:101530000100009B01B000F013B8000000000000A3
:10154000002848BF704700F01F01012202FA01F194
:101550004EF200124009CEF2000242F8201070470D
:10156000B0B54EF60C5C00F00F05CEF2000C043D59
:101570006544DCF800304FF0FF3CC3F3022E8EF0E0
:101580000703042B28BF0423BEF1030438BF002443
:101590000CFA03F3B0F1FF3F21EA030105F10C035C
:1015A00000F160450CFA04F0C8BF05F56443A140A2
:1015B00022EA0000084300011870B0BD00000000DE
:1015C0004EF60C514FF6FF03CEF200010A681A40A6
:1015D00060F30A2242F0806040F0FD7008607047BE
:1015E000B0B544F60C05C5F6020529684907296817
:1015F00006D401F00701081A18BF0120B0BD00BFD2
:1016000021F0070108432860FFF7E2FE044600BF0F
:1016100055F8080C800407D4FFF7DAFE001BB0F57C
:101620007A7FF5D90120B0BD0020B0BD00000000D8
:1016300080B501F0D5F844F2204148F67422C5F691
:101640000201C0F600020968C1F30211515C01F009
:101650001F01C84080BD000080B544F2384EC5F679
:10166000020E5EF8103C5EF8101CC1F3053C5EF8FB
:101670000C1CBCF1000FDEF8042015D0C1F30011E2
:10168000C2F3CC02514300EE101A03F00301022909
:10169000B8EE400A0ED089B95EF8381C890611D41C
:1016A0009FED361A1CE000BF00218160C0E90011E7
:1016B00080BD00BF9FED301A12E000BF9FED2D1AD4
:1016C0000EE000BF5EF8381C49F20002C0F2D032D2
:1016D000C1F3C10122FA01F101EE101AB8EE411A6C
:1016E000DEF800109FED263A6FF35F2102EE101A2C
:1016F000DEF80010C1F34621B8EE422A00EE032ABC
:1017000000EE10CAB7EE003AB8EE400A81EE000AC9
:1017100032EE031A02EE101AB8EE422A20EE010A47
:1017200032EE031A80EE011ABCEEC11A80ED001AE7
:10173000DEF80010C1F3064101EE101AB8EE411AAE
:1017400031EE031A80EE011ABCEEC11A80ED011AC7
:10175000DEF80010C1F3066101EE101AB8EE411A6E
:1017600031EE031A80EE010ABCEEC00A10EE101A28
:10177000816080BD0024744A20BCBE4B0024744CA0
:10178000000000390000000080B544F2404EC5F66C
:10179000020E5EF8183C5EF8181CC1F3055C5EF89A
:1017A000141CBCF1000FDEF8042015D0C1F3002199
:1017B000C2F3CC02514300EE101A03F003010229D8
:1017C000B8EE400A0ED089B95EF8401C890611D4E3
:1017D0009FED361A1CE000BF00218160C0E90011B6
:1017E00080BD00BF9FED301A12E000BF9FED2D1AA3
:1017F0000EE000BF5EF8401C49F20002C0F2D03299
:10180000C1F3C10122FA01F101EE101AB8EE411A3A
:10181000DEF800109FED263A6FF35F2102EE101AFA
:10182000DEF80010C1F34621B8EE422A00EE032A8A
:1018300000EE10CAB7EE003AB8EE400A81EE000A98
:1018400032EE031A02EE101AB8EE422A20EE010A16
:1018500032EE031A80EE011ABCEEC11A80ED001AB6
:10186000DEF80010C1F3064101EE101AB8EE411A7D
:1018700031EE031A80EE011ABCEEC11A80ED011A96
:10188000DEF80010C1F3066101EE101AB8EE411A3D
:1018900031EE031A80EE010ABCEEC00A10EE101AF7
:1018A000816080BD0024744A20BCBE4B0024744C6F
:1018B00000000039000000002DE9F0470446C07820
:1018C00044F22C480007C5F6020845D5606E4FEA81
:1018D000305103290CD8DFE801F003112F3800BF85
:1018E000D8F8001041F40031C8F800102DE000BF16
:1018F00001266078C0070AD032E000BF201D022117
:1019000003F02AFF0646F8B16078C00728D13546B3
:101910003746607880073BD43E466078400750D415
:10192000B1466078000700F167804F46E078800795
:1019300040F15F817AE000BF04F12400022103F04E
:101940009FFF06460028DFD1606ED8F8241021F4EE
:1019500040110843C8F8240000266078C007D6D09C
:10196000606D042800F2A6803546DFE800F003AB86
:10197000B10A0A00D8F80000354640F40030C8F833
:101980000000002D2F4600F0AD8060788007C3D5A1
:10199000A06D4FEAB010042800F2B480DFE800F038
:1019A00004BAC00A0A0000BFD8F8000040F40030B2
:1019B000C8F80000002D2E4600F0BC80607840077B
:1019C000AED5D4F8A4004FEA7050042800F2C280CB
:1019D000DFE800F004C8CE0A0A0000BFD8F8000013
:1019E00040F40030C8F80000002DA94600F0CA807D
:1019F000607800077FF599AFD4F8A8004FEA30600F
:101A0000042800F2CF80DFE800F003D5DB090900ED
:101A1000D8F8000040F40030C8F80000002D2F4630
:101A200000F0D880E078800740F1E380A06C4FEAB6
:101A3000301003281AD8DFE800F003212B0300BF81
:101A40002E466DB36078C00600F1D88037466078C6
:101A5000800600F1ED803E466078400600F1FC8093
:101A600037466078000640F1BA8109E10125012678
:101A70006078C00600F1C280E8E700BFD8F8000037
:101A800040F40030C8F80000002D2E46DAD107E0FF
:101A9000201D022103F060FE0546002D2E46D1D107
:101AA000D8F82000A16C20F0300000250843C8F8C9
:101AB00020009EE001250127607880073FF568AF90
:101AC0002AE700BF201D002103F046FE05E000BF0D
:101AD00004F12400002103F0D3FE0546002D2F461B
:101AE0007FF453AFD8F82400616D20F00700002583
:101AF0000843C8F824003746607880077FF50CAFAC
:101B000046E700BF01250126607840073FF559AF41
:101B100006E700BF201D002103F01EFE05E000BF08
:101B200004F12400002103F0ABFE0546002D2E46F3
:101B30007FF444AFD8F82400A16D20F4E0700025B4
:101B40000843C8F824003E46607840077FF5E8AEB9
:101B500037E700BF01254FF00109607800073FF526
:101B60004BAFE2E6201D002103F0F6FD05E000BFCB
:101B700004F12400002103F083FE0546002DA94650
:101B80007FF436AFD8F82C00D4F8A41020F460000D
:101B900000250843C8F82C00B146607800077FF59F
:101BA000C4AE29E701250127E07880073FF53EAF65
:101BB0001FE000BF201D002103F0CEFD05E000BFA7
:101BC00004F12400002103F05BFE0546002D2F46A2
:101BD0007FF428AFD8F82C00D4F8A81020F0E060EB
:101BE00000250843C8F82C004F46E07880073FF5F1
:101BF0001DAF3E466078C0067FF528AFE06D4FEA26
:101C00003030042800F26C80DFE800F00472780ABB
:101C10000A0000BFD8F8000040F40030C8F8000007
:101C2000002D2F4600F07480607880067FF513AF9A
:101C3000206E4FEA3040052800F27A80DFE800F09D
:101C400004808A04040400BF002D2E4600F08C801E
:101C5000607840067FF504AFD4F8AC004FEA3070EE
:101C6000052800F29180DFE800F00397A103030349
:101C7000002D2F4600F0A4806078000640F1AF8070
:101C8000E06E58B1B0F1005F10D0B0F1805F1FD1AD
:101C9000D8F8000040F40030C8F800002E466DB1BE
:101CA000E078C00700F0CF809DE000BF201D01213B
:101CB00003F052FD0546002D2E46F1D1D8F8240040
:101CC000E16E20F0405000250843C8F8240086E06B
:101CD00001250126E078C00740F08580B3E000BF11
:101CE00001250127607880063FF5A2AFB3E600BF6B
:101CF000201D002103F030FD05E000BF04F12400A9
:101D0000002103F0BDFD0546002D2F467FF48CAF6A
:101D1000D8F82400E16D20F4E04000250843C8F81D
:101D200024003746607880067FF595AE80E700BFD7
:101D300001250126607840063FF58EAF90E600BF92
:101D4000201D012103F008FD0546002D2E467FF4DD
:101D50007FAF09E004F12400012103F091FD054665
:101D6000002D2E467FF474AFD8F82400216E20F4A5
:101D7000E02000250843C8F824003E46607840066D
:101D80007FF56EAE68E700BF012501276078000689
:101D90003FF576AF23E000BF201D012103F0DCFCFE
:101DA0000546002D2F467FF467AF09E004F12400BB
:101DB000012103F065FD0546002D2F467FF45CAF41
:101DC000D8F82C00D4F8AC1020F0E04000250843EF
:101DD000C8F82C003746607800063FF551AF3E4604
:101DE000E078C0072FD0606C032809D8DFE800F046
:101DF00002101A02A946EDB1A07840062AD426E0C6
:101E000001254FF00109A078400620D522E000BF4F
:101E1000D8F8000040F40030C8F80000002DA946B2
:101E2000EAD107E0201D022103F096FC0546002DB3
:101E3000A946E1D1D8F82000616C20F0030000250C
:101E40000843C8F82000B146A078400602D44F46A7
:101E500019E000BFD8F8D40340F48070C8F8D40368
:101E6000FFF7B6FA064600BFD8F8D403C00507D47A
:101E7000FFF7AEFA801B6428F6D90325032702E09A
:101E8000002D2F4664D02078C00700F0B680A06FE8
:101E90004FEAF000052800F28D80DFE800F00391A2
:101EA0009B030303002D2E4600F09E8020788007C0
:101EB00000F1A88037462078400700F1B7803E4601
:101EC0002078800600F1C88037462078400600F16F
:101ED000DB803E462078000600F1EE803746206821
:101EE000010740F10181D4F88000B0F5805F09D18D
:101EF00004F12400022103F0C3FC002818BF0127CD
:101F0000D4F88000D8F8281021F440510843C8F8CC
:101F100028002068C10640F1EA80D4F89400B0F5AA
:101F2000807F09D104F12400022103F0A9FC0028DC
:101F300018BF0127D4F89400D8F82C1021F4407170
:101F40000843C8F82C002068000340F1F780D0E077
:101F5000D8F84410D4F8B000414011F4407F11D0BB
:101F6000D8F84410D8F8442042F48032C8F844200D
:101F7000D8F8442021F4407122F48032C8F844207B
:101F8000C8F84410B0F5807F40F0AC82FFF720FA2B
:101F9000064641F2883A0325032700BFD8F84400DB
:101FA000800700F19D82FFF713FA801B5045F5D999
:101FB00069E700BF012501262078800722D479E750
:101FC000201D012103F0C8FB0546002D2E467FF49D
:101FD0006DAF09E004F12400012103F051FC054636
:101FE000002D2E467FF462AFD8F82800A16F20F0B4
:101FF000380000250843C8F828003E4620788007AE
:102000007FF558AF606F052800F28E81DFE810F091
:10201000060094019E01060006000600002D2F46D2
:1020200000F09E81207840077FF549AFD4F89000FA
:10203000052800F2A581DFE810F00700AB01B5012B
:1020400007000700070000BF002D2E4600F0B481F6
:10205000207880067FF538AFD4F88C004FEA3070D6
:10206000052800F2B981DFE810F00700BF01C901BF
:1020700007000700070000BF002D2F4600F0C881B1
:10208000207840067FF525AFD4F898004FEAB020BD
:10209000052800F2CD81DFE810F00700D301DD0153
:1020A00007000700070000BF002D2E4600F0DC816E
:1020B000207800067FF512AFD4F89C004FEA70300C
:1020C000052800F2E181DFE810F00700E701F101E7
:1020D00007000700070000BF002D2F4600F0F08129
:1020E000206801073FF5FFAEC1063FF516AF0003BC
:1020F00024D5D4F8A000B0F5003F0FD0B0F5803F54
:1021000006D0B8BB201D002103F026FB05E000BF70
:1021100004F12400022103F0B3FB05462E461DB155
:10212000A07840073FD50DE0D8F82C00D4F8A010D7
:1021300020F4403000250843C8F82C003E46A07823
:10214000400730D5D4F88400B0F5401F0BD0B0F56F
:10215000001F15D0B0F5801F70D1D8F8000040F4F2
:102160000030C8F800002F469DB1A078C0071ED1EE
:1021700069E000BF01260125A0784007E2D412E003
:1021800004F12400012103F07BFB0546002D2F46BE
:10219000EBD1D8F82800D4F8841020F440100025A2
:1021A0000843C8F828003746A078C0074BD0E06C39
:1021B000B0F5803F2AD0D8BBD8F8000040F40030FA
:1021C000C8F800002E464DB3206881003FD481033B
:1021D00048D4C1025DD4C10065D481026FD44100EE
:1021E00078D4B0F1FF3F40F38680000208D5D8F8DC
:1021F0002800D4F8881020F440000843C8F82800CC
:10220000002E18BF01263046BDE8F087201D0221B0
:1022100003F0A2FA0546002D2E46D5D1D8F82000AD
:10222000E16C20F4803000250843C8F820000AE063
:102230000126012520688100C9D508E00127012574
:10224000A078C007B3D13E4620688100BFD504F115
:102250002400022103F014FB002818BF0126206887
:102260008103B6D5E16F6FF0010202EB3122022A41
:102270000AD34FEA31223AB1012A07D1D8F8002017
:1022800042F40032C8F80020002D41D00126C102DE
:10229000A1D5D8F82410226F21F000411143C8F8CD
:1022A0002410C10099D558F81C1CD4F8B42021F48E
:1022B0008041114348F81C1C81027FF590AFD8F88B
:1022C0002410A26E21F080711143C8F8241041003F
:1022D0007FF587AF58F81C1C21F4004148F81C1CFE
:1022E000D4F8B81058F81C2C114348F81C1CB0F155
:1022F000FF3F3FF77AAFD8F82010226D21F0405110
:102300001143C8F8201000027FF57AAF6FE700BFD5
:10231000D8F8282022F440721143C8F82810C102CE
:102320007FF559AFB5E700BF0125012720784007A9
:102330003FF57CAEC3E500BF201D012103F00CFA80
:102340000546002D2F467FF46DAE09E004F1240010
:10235000012103F095FA0546002D2F467FF462AE69
:10236000D8F82800616F20F0070000250843C8F85E
:1023700028003746207840077FF5A1AD56E600BF1C
:1023800001260125207880063FF566AE9CE500BF5A
:10239000201D012103F0E0F90546002D2E467FF4B3
:1023A00057AE09E004F12400012103F069FA054663
:1023B000002D2E467FF44CAED8F82C00D4F89010A7
:1023C00020F0070000250843C8F82C003E4620787E
:1023D00080067FF579AD3FE601270125207840068C
:1023E0003FF552AE75E500BF201D002103F0B4F9A2
:1023F0000546002D2F467FF443AE09E004F124008A
:10240000022103F03DFA0546002D2F467FF438AE39
:10241000D8F82800D4F88C1020F0E04000250843BC
:10242000C8F828003746207840067FF552AD2BE6E5
:1024300001260125207800063FF53EAE4EE500BF9F
:10244000201D002103F088F90546002D2E467FF45B
:102450002FAE09E004F12400022103F011FA054631
:10246000002D2E467FF424AED8F82C00D4F8981016
:1024700020F4E05000250843C8F82C003E462078A0
:1024800000067FF52BAD17E601270125206801071F
:102490007FF52AAE27E500BF201D002103F05CF97F
:1024A0000546002D2F467FF41BAE09E004F1240001
:1024B000022103F0E5F90546002D2F467FF410AE0A
:1024C000D8F82C00D4F89C1020F460400025084374
:1024D000C8F82C003746206801077FF505AE02E5F5
:1024E000D4F8B0004FF6CF7358F81C2CC0F2FF039D
:1024F00000F4407122F47C5203EA10136FF31F3092
:10250000B1F5407F08BF1A43002548F81C2CD8F8C5
:1025100044100843C8F84400FFF799BC00000000CD
:102520002DE9F04381B0002800F02A8142F2000832
:102530000446C5F200288946D8F8000000F00F00D4
:1025400088420ED2D8F8000020F00F0040EA0900BF
:10255000C8F80000D8F8000000F00F00484540F02F
:102560000F81206844F218474107C5F602070AD5D3
:1025700021693A6802F07002914204D93A6822F067
:1025800070021143396001070AD561697A6802F067
:102590007002914204D97A6822F070021143796086
:1025A000C1060AD5A1697A6802F4E062914204D9B1
:1025B0007A6822F4E0621143796081060AD5E16904
:1025C000BA6802F07002914204D9BA6822F070022F
:1025D0001143B96010F002010AD0E2683B6803F0D1
:1025E0000F039A4204D93B6823F00F031A433A6061
:1025F000C20746D0386820F47061D4E9010201288E
:1026000041EA0201396009D003280DD0022811D116
:1026100057F8181C890340F1B38010E057F8181CD4
:10262000C90540F1AD800AE057F8181C890140F156
:10263000A78004E057F8181C490740F1A18057F81B
:10264000081C21F00701084347F8080CFEF7C0FEFC
:10265000064641F2883500BF57F8080C616800F063
:102660003800B0EBC10F09D0FEF7B2FE801BA842C4
:10267000F2D9032001B0BDE8F08300BF206800F06C
:10268000020151B1E1683A6802F00F02914204D2AE
:102690003A6822F00F0211433960D8F8001001F0B7
:1026A0000F0149450DD9D8F8001021F00F0141EA7A
:1026B0000901C8F80010D8F8001001F00F014945D1
:1026C0005ED141070AD521693A6802F07002914251
:1026D00004D23A6822F070021143396001070AD52A
:1026E00061697A6802F07002914204D27A6822F03D
:1026F000700211437960C1060AD5A1697A6802F4B3
:10270000E062914204D27A6822F4E0621143796077
:1027100080060AD5E069B96801F07001884204D2E8
:10272000B96821F070010843B86000F0E1F8396839
:1027300048F674233A68C0F60003C1F3032102F09F
:102740000F02595C9A5C01F01F0120FA01F102F0BE
:102750001F0040F20C0221FA00F0C2F200421060A9
:1027600040F2040040F20802C2F20040C2F200420D
:102770000068116001B0BDE8F043FEF775BE00BF10
:10278000012001B0BDE8F0833F22026044F218420C
:10279000C5F6020252F8083C03F0070343601368D1
:1027A00003F470638360136803F00F03C36013685E
:1027B00003F070030361536803F0700343615368CF
:1027C00003F4E0638361926802F07002C26142F236
:1027D0000000C5F20020006800F00F00086070479C
:1027E00080B500F085F844F2184148F67423C5F628
:1027F0000201C0F600030A68096801F00F01C2F384
:102800000322595C9A5C02F01F0220FA02F201F0E6
:102810001F0040F20C0122FA00F0C2F200410860F1
:1028200040F20801C2F200410A6080BD00000000D1
:1028300080B500F05DF844F2184C48F67421C5F6F6
:10284000020CC0F60001DCF80020DCF8003003F0D8
:102850000F03C2F30322CB5C8A5C02F01F02D0405C
:1028600003F01F0240F20C0320FA02F2C2F200430E
:102870001A6040F20803C2F200431860DCF804005A
:10288000C0F30210085C00F01F0022FA00F080BDC7
:1028900080B500F02DF844F2184C48F67421C5F6C6
:1028A000020CC0F60001DCF80020DCF8003003F078
:1028B0000F03C2F30322CB5C8A5C02F01F02D040FC
:1028C00003F01F0240F20C0320FA02F2C2F20043AE
:1028D0001A6040F20803C2F200431860DCF80400FA
:1028E000C0F30220085C00F01F0022FA00F080BD57
:1028F00044F20041C5F602010869C0F3C200032892
:1029000010D002282CD088BB0868800649F200004D
:10291000C0F2D03058BF70470968C1F3C101C84048
:10292000704700BF8A6A886AC0F3051CC86ABCF198
:10293000000F4B6B20D0C3F3CC0300F001005843D1
:1029400002F00302022A00EE100AB8EE400A15D087
:10295000C2B90868800619D49FED281A23E000BF89
:1029600047F64000C0F27D10704700BF40F60010EF
:10297000C0F23D00704700BF002070479FED1E1A57
:1029800011E000BF9FED1B1A0DE000BF086849F27F
:102990000002C0F2D032C0F3C10022FA00F001EE12
:1029A000100AB8EE411A086B9FED153A6FF35F20DD
:1029B00002EE100A086BC0F34620B8EE422A01303E
:1029C00000EE032A00EE10CAB7EE003AB8EE400A55
:1029D00081EE000A32EE031A20EE010A01EE100A1F
:1029E000B8EE411A80EE010ABCEEC00A10EE100AE1
:1029F000704700BF0024744A20BCBE4B0024744CB6
:102A00000000003900000000F0B581B0002800F09F
:102A10005B810446007844F20046C007C5F6020612
:102A200012D0306900F03801B06A102905D0182999
:102A30002ED100F0030002282AD13068800303D58C
:102A40006068002800F040812078800740F1A9806C
:102A5000306910F03801B06A2CD0182908BF5FEA3D
:102A6000807027D0E068316800284FD021F019012C
:102A700008433060FEF7ACFC054600BF30684007F5
:102A800034D4FEF7A5FC401B0228F7D95BE100BF58
:102A9000606800284CD0B0F5A02F61D0B0F5803F21
:102AA00062D0306820F480303060306820F48020BC
:102AB0005DE000BF30684007E06802D5002800F004
:102AC0000381316821F0190108433060FEF780FC72
:102AD000054600BF3068400708D4FEF779FC401B6C
:102AE00002284FF00300F5D919E200BFFEF768FC99
:102AF00041F20301884249D820697168402821F4D5
:102B00007C314BD141F400304AE000BF21F001009C
:102B10003060FEF75DFC05463068400741D5FEF7A2
:102B200057FC401B02284FF00300F5D9F7E100BF26
:102B3000306820F480303060306820F480203060CD
:102B4000FEF746FC054600BF306880037FF57CAF8A
:102B5000FEF73EFC401B64284FF00300F4D9DEE191
:102B6000306840F480203060306840F4803030605D
:102B7000FEF72EFC054600BF306880033FF564AFCA
:102B8000FEF726FC401B6428F6D9DCE0706821695A
:102B900020F0FE4040EA016002E000BF41EA003060
:102BA00070602078C00654D5306900F03801B06AF2
:102BB000082905D0182919D100F00300012815D1E2
:102BC0003068C00503D5E069802840F07D80FEF7BD
:102BD000F7FB41F2030188421ED8206A7168202861
:102BE00021F0F84132D141F0804031E0E069002825
:102BF000306819D040F080003060FEF7E9FB0546F0
:102C00003068C005E3D4FEF7E3FB401B02284FF019
:102C10000300F5D983E100BFF068216A20F07C5001
:102C200040EA0160F06014E020F080003060FEF7C0
:102C3000CFFB05463068C0050BD5FEF7C9FB401B2E
:102C400002284FF00300F5D969E100BF41EA806036
:102C50007060207800073BD4207880064CD4207820
:102C600040075DD4656A65B3306900F03800182804
:102C700040F0A080012DB16A306B25D001F0030235
:102C8000A36A9A4220D1C1F30511E26A91421BD195
:102C90000146226B6FF35F21013A914214D1C0F3D8
:102CA0004622616B01398A420ED1C0F30642A16B04
:102CB00001398A4208D1C0F30660E16B01398842CC
:102CC00002D1002001B0F0BD012001B0F0BD00BF75
:102CD00060690028706F39D040F001007067FEF71E
:102CE00077FB0546706F8007B6D4FEF771FB401B7B
:102CF0000228F7D927E000BFA0690028306847D034
:102D000040F480503060FEF763FB05463068800475
:102D1000A5D4FEF75DFB401B0228F7D913E000BFE6
:102D2000D6F8000440F48070C6F80004FEF750FBAB
:102D3000054600BFD6F80004C00519D4FEF748FBCD
:102D4000401B6428F6D9032001B0F0BD20F001003B
:102D50007067FEF73DFB0546706F80077FF57CAF1F
:102D6000FEF736FB401B02284FF00300F4D9D6E0F3
:102D7000A068002840D0052858D001285AD0306FCC
:102D800020F001003067306F20F0040055E000BFF4
:102D900020F480503060FEF71BFB0546306880044D
:102DA0007FF55DAFFEF714FB401B02284FF00300D8
:102DB000F4D9B4E0306820F080703060FEF708FB92
:102DC000022D05460CD100BF3068800148D5FEF7C2
:102DD000FFFA401B02284FF00300F5D99FE000BF27
:102DE000306880017FF56DAFFEF7F2FA401B0228D4
:102DF0004FF00300F4D992E0306F20F0010030670B
:102E0000306F20F004003067FEF7E2FA054641F229
:102E10008837306F80077FF525AFFEF7D9FA401B62
:102E2000B8424FF00300F4D979E000BF306F40F0B2
:102E300004003067306F40F001003067FEF7C8FAD9
:102E4000054641F2883700BF306F80073FF50AAF73
:102E5000FEF7BEFA401BB8424FF00300F4D95EE023
:102E600004F12807B06A40F2F33188438ECF08435B
:102E7000591E40EA02104FF47E426FF35F21B062A8
:102E800002EB47204FF4FE0280B2E36B0844A16BD3
:102E900002EB01414FF0FE4201F4FE0102EB03623E
:102EA000084402F0FE4108443063F06A4FF6F871BE
:102EB00020F00100F062706BA26C884340EAC2000F
:102EC0007063F06A216C20F00C000843F062F06A35
:102ED000616C20F002000843F062F06A40F4803038
:102EE000F062F06A40F40030F062F06A40F4802052
:102EF000F062F06A40F00100F062306840F08070EB
:102F00003060FEF765FA0446306880013FF5D9AEBF
:102F1000FEF75EFA001B02284FF00300F4D901B05F
:102F2000F0BD00000000000070470000000000003D
:102F30007047000000000000704700000000000023
:102F4000B0B590F83C20012A02D10220B0BD00BFEC
:102F5000CB6848F2FF7ED1E901C223F47C5322F40E
:102F60007052CFF6F07E1A430CEA0E03D1F800C07F
:102F700042EA030E2CF477230A6943EA0E0322F493
:102F80007622D0F800E01A434B691A438B6A22F488
:102F9000742C23F470238A6940F200454EF4806457
:102FA000C4F2010543EA0C03AC4243EA02430FD1E9
:102FB000002523F07C724B6ACFF6F045CC6905EA18
:102FC00003531A4324F00073096A1A4342EA0103C7
:102FD0000021CEF8443080F83C100846B0BD000017
:102FE000B0B590F83C20012A4FF002025BD080F887
:102FF0003D2040F2004C0268C4F2010C42F48063B0
:1030000063455368D2F808E002BF23F470034C68AC
:10301000234341F2FF740D68C4F2000423F07003EF
:10302000A24243EA050353600CDC40F2FF73C4F292
:1030300000039A4216DCB2F1804F29D040F20043DF
:1030400018E000BF40F2FF33C4F201039A4217DCDC
:1030500041F60003C4F200039A4219D00023C4F2DF
:10306000010309E040F60003C4F200039A420FD0C6
:1030700040F60043C4F200039A4209D00DE000BFBD
:1030800044F20003C4F201039A4201D0624504D124
:103090002EF080038968194391600022012180F895
:1030A0003D1080F83C201046B0BD0000000000003C
:1030B00060B310B5044690F83D0028B9002084F8AC
:1030C0003C00204600F024F8022084F83D002068EF
:1030D000211D02F0ADFD012084F8480084F83E0077
:1030E00084F83F0084F8400084F8410084F84200EE
:1030F00084F8430084F8440084F8450084F84600CE
:1031000084F8470084F83D00002010BD012070477E
:1031100081B040F2FF310068C4F20101884221DD34
:1031200040F20041C4F20101884239D044F200016A
:10313000C4F2010188423DD044F60001C4F201010D
:10314000884244D144F2F040C5F60200016841F4DF
:1031500080210160006800F480200090009801B098
:10316000704700BF40F20041C4F20001884231D0F4
:1031700041F60001C4F20001884228D144F2F04037
:10318000C5F6020050F8081C41F0400140F8081C48
:1031900050F8080C00F040000090009801B0704713
:1031A00044F2F040C5F60200016841F002010160FE
:1031B00000681BE044F2F040C5F60200016841F4EB
:1031C00080310160006800F480300090009801B008
:1031D000704700BF44F2F040C5F6020050F8081CEA
:1031E00041F0020140F8081C50F8080C00F0020001
:1031F0000090009801B0704790F83D1001291BD154
:10320000022180F83D10016841F2FF70C4F2000015
:103210008142C86840F00100C8600FDC40F2FF70D6
:10322000C4F20000814217DCB1F1804F2CD040F293
:103230000040C4F2000025E00120704740F2FF305A
:10324000C4F20100814213DC41F60000C4F2000028
:10325000814219D0002013E040F60000C4F20000C3
:10326000814211D040F60040C4F200000AE000BFE5
:1032700044F20000C4F20100814205D040F2004057
:10328000C4F2010081420BD107228868C0F201021A
:1032900002400020062A18BFB2F5803F00D17047D7
:1032A000086840F00100086000207047000000003E
:1032B00080B590F83C20012A4FF0020200F0A78070
:1032C00080F83D208822D0F800C0CFF6CE72DCF81E
:1032D00008301A40CCF808200B686F2B0EDDB3F1D4
:1032E000101F37DAB3F5005F46DA702B00F09280DA
:1032F000B3F5805F00F08480D6E000BF2F2B33DD74
:103300004F2B3FDC302B6FD0402B40F0CD80D1F8DD
:1033100004E0C968DCF82030DCF8202022F001024B
:10332000CCF82020DCF8182022F0F00242EA01114B
:1033300023F00A02CCF8181042EA0E01CCF8201053
:103340004FF68872DCF80810CFF6CF721140473183
:1033500054E000BF2F21C0F210018B423ADCB3F1E0
:10336000101F41D020213BE0002B18BF102B3BD079
:10337000202B39D098E000BF60D0B3F5801F33D048
:1033800092E000BF502B6DD0602B40F08D80D1F8C3
:1033900004E0C968DCF8203023F01003CCF82030BA
:1033A000DCF81830DCF8202023F4704322F0A0026F
:1033B00043EA0131CCF8181042EA0E11CCF8201083
:1033C0004FF68872DCF80810CFF6CF7211406731E3
:1033D00014E000BF3021C0F210018B4204D0402124
:1033E000C0F210018B425FD14FF68872DCF80810F2
:1033F000CFF6CF721140194341F00701CCF8081005
:103400000022012180F83D10002180F83C10104678
:1034100080BD00BFD1E901E3C968DCF8082043EAB8
:103420000E0322F47F4243EA01211143CCF8081035
:10343000DCF8081041F07701E0E700BFD1E901E3D3
:10344000C968DCF8082043EA0E0322F47F4243EA0D
:1034500001211143CCF80810DCF8081041F4804138
:10346000CCE700BFD1F804E0C968DCF82030DCF814
:10347000202022F00102CCF82020DCF8182022F0D5
:10348000F00242EA011123F00A02CCF8181042EAD5
:103490000E01CCF820104FF68872DCF80810CFF639
:1034A000CF7211405731A9E70122AAE700000000BE
:1034B000002857D02DE9F04381B0044690F83D0034
:1034C0000D4628B9002084F83C00204600F04CF856
:1034D000022084F83D0020684BF6F872CFF6FE72A9
:1034E000816811408160211D02F0A2FB20684FF627
:1034F000FF79D0F808808269D0F820C0AF69D5E99B
:10350000026122EA090246EA07264FF6FC47BE435B
:10351000EF6911432A6931432E6A41EA07216F6935
:10352000D5E9003E41EA02112CF0AA0242EA0E025D
:1035300043EA080341EA06318360816142EA0711E8
:103540000162012084F8480084F83E0084F83F00BE
:1035500084F8440084F8450084F83D00002001B060
:10356000BDE8F08301207047F0B587B040F6FF3228
:103570000068C4F20002002190420691CDE90411D6
:10358000CDE902112EDCB0F1804F5DD040F6000194
:10359000C4F20001884240F0B38044F2E040C5F636
:1035A0000200816841F004018160816801F004013A
:1035B00001910199016841F0080101600068002152
:1035C00000F00800019001984FF44050CDE904113B
:1035D00000210290C5F6020102200390069001F539
:1035E00040608AE040F60041C4F20001884263D0A6
:1035F0000021C4F20101884240F0828044F2E040A0
:10360000C5F60200016941F001010161016901F0A3
:10361000010101910199016841F010010160006808
:10362000002100F0100001900198059100214FF455
:103630002060C5F602010290022003900120049050
:10364000069001F5805058E044F2E0400024C5F6B1
:103650000200C5F60204022500268168012741F018
:1036600001018160816801F0010101910199016806
:1036700041F001010160016801F00101019101992E
:10368000016841F002010160006802A900F0020037
:10369000019001984FF40040029020460395CDE937
:1036A00004660697FDF798FD02A90820CDE9056795
:1036B00061C104F5806020E044F2E040C5F60200FC
:1036C000816841F008018160816801F00801019181
:1036D0000199016841F0010101600068002100F0DA
:1036E00001000190019803200290022003900690AF
:1036F0000020C5F60200CDE9041102A9FDF76CFD1A
:1037000007B0F0BD0000000080B590F83E2004290D
:1037100090F83F3090F844E090F845C00AD0B9B92D
:10372000012A4FF0010208BFBEF1010F34D010464C
:1037300080BD00BF0122012B08BFBCF1010FF6D1F3
:10374000022180F83F1080F84510006820E000BF9B
:10375000012A4FF0010208BF012BE8D1BEF1010F91
:1037600008BFBCF1010FE2D14FF0020280F83E2009
:1037700080F83F2080F8442080F8452089B1006817
:10378000016A21F001010162016A41F00101016257
:1037900010216FF0100208E0022180F83E1080F83E
:1037A0004410006801216FF00102036A1A400262AE
:1037B000026A114301620168002241F001010160C7
:1037C000104680BD000000007047000000000000AF
:1037D00010B5044600680169890744BFC1685FEA03
:1037E00081713FD40169490744BFC1685FEA4171F3
:1037F00044D40169090744BFC1685FEA01714BD431
:103800000169C90644BFC1685FEAC16150D401695A
:10381000C9071CBFC1685FEAC17157D101690906B8
:1038200044BFC1685FEA016158D40169C90544BF5A
:10383000C1685FEA016159D40169490644BFC168A2
:103840005FEA41615AD40169890646BFC1685FEAEF
:10385000816110BD6FF0200101612046BDE810407C
:10386000FFF76ABB6FF002010161012121778069D6
:1038700080074BD02046FFF7A7FF4DE06FF0040113
:10388000016102212177806910F4407F48D02046F1
:10389000FFF79AFF4AE000BF6FF0080101610421C1
:1038A0002177C069800745D02046FFF78DFF47E0AC
:1038B0006FF01001016108212177C06910F4407F89
:1038C00042D02046FFF780FF44E000BF6FF00101C7
:1038D0000161204600F078FC20689FE76FF08001CE
:1038E00001612046FFF724FB20689EE76FF480719A
:1038F00001612046FFF718FB20689DE76FF040014B
:103900000161204600F06CFC20689CE7204600F036
:10391000F7F8204600F08CFB00202077206861E754
:10392000204600F0EDF8204600F082FB00202077D2
:1039300020685EE7204600F0E3F8204600F078FBC0
:103940000020207720685BE7204600F0D9F8204669
:1039500000F06EFB00202077206858E70000000090
:1039600070B586B040F2FF320068C4F20102002157
:1039700090420591CDE90311CDE901112ADD40F214
:103980000041C4F2010188424CD044F20001C4F26B
:103990000101884264D044F60001C4F2010188426A
:1039A00040F0AC8044F2E040C5F60200016841F00E
:1039B00002010160006800F00200009000984FF4DE
:1039C00000700190022002900020CDE90300012048
:1039D00022E000BF40F20041C4F2000188425DD005
:1039E00041F60001C4F20001884240F0878044F2B1
:1039F000E040C5F60200016841F002010160006884
:103A0000002100F00200009000984FF44040019027
:103A100002200290CDE9031140F200440590C5F662
:103A2000020467E044F2E040C5F60200016841F09C
:103A300004010160006840F2004100F004000090C1
:103A4000C5F6020100984FF4007001900220029028
:103A5000002001F58064CDE903000320059049E0D2
:103A600044F2E040C5F60200016841F00101016046
:103A700040F200410068C5F6020100F0010000902C
:103A8000A1F5806400980C20019002200290002093
:103A9000CDE90300042005902CE000BF44F2E04093
:103AA00040F20044C5F60200C5F6020402250026D5
:103AB000016841F001010160016801F0010100911C
:103AC0000099016841F002010160006801A900F05D
:103AD00002000090009880200190A4F5806002957B
:103AE000CDE903660595FDF777FBCDE90155CDE9F5
:103AF0000366059501A92046FDF76EFB06B070BD73
:103B000070470000000000002DE9F04190F83C30C3
:103B1000012B03D10220BDE8F08100BF4FEAB202C1
:103B2000052A31D8DFE812F0060038007600B4002C
:103B3000DA000001036843F6FF76C4F201061A6A50
:103B4000B34222F001021A621A461C6AD3F804E05A
:103B500024F0020452F818CF8D6844EA0504D1F825
:103B6000008040F3078144F20007C4F20107BB4222
:103B700000F00B8144F60007C4F20107BB4200F0DD
:103B8000048144F20047FCE00121002280F83C203F
:103B90000846BDE8F08100BF036840F2004E43F4E0
:103BA0008067C4F2010E1A6A774522F010021A6289
:103BB0001A461C6A5D6824F0200452F818CF8E68FB
:103BC00044EA061407D1CE686FF0400724F0C00421
:103BD00007EA0616344343F6FF76D1F80080C4F2B4
:103BE0000106B34240F3EC8044F20007C4F201073F
:103BF000BB4200F0EC8044F60007C4F20107BB4270
:103C000000F0E58044F20047C4F20107BB4200F037
:103C1000DE80E4E0036840F2004E43F48067C4F2C3
:103C2000010E1A6A774522F480721A621A461C6ADB
:103C30005D6824F4007452F81CCF8E6844EA0624B0
:103C400007D1CE6840F2FF47360224F44064BE43F9
:103C5000344343F6FF76D1F80080C4F20106B34244
:103C600040F3D48044F20007C4F20107BB4200F0E5
:103C7000D48044F60007C4F20107BB4200F0CD80B7
:103C800044F20047C4F20107BB4200F0C680CCE01A
:103C9000036843F6FF77C4F201071A6ABB4222F4B5
:103CA00080521A621A46D3F820C05C6852F81C6F22
:103CB0000D68D1F808E040F3CF8044F20007C4F269
:103CC0000107BB4200F0D38044F60007C4F20107AD
:103CD000BB4200F0CC8044F20047C4E0036843F6E6
:103CE000FF77C4F201071A6ABB4222F480321A62DB
:103CF0001A46D3F820C05C6852F8546F0D68D1F8AA
:103D000008E040F3D38044F20007C4F20107BB424D
:103D100000F0D78044F60007C4F20107BB4200F070
:103D2000D08044F20047C8E0036843F6FF77C4F24E
:103D300001071A6ABB4222F480121A621A46D3F8AB
:103D400020C05C6852F8546F0D68D1F808E040F369
:103D5000D98044F20007C4F20107BB4200F0DD80C5
:103D600044F60007C4F20107BB4200F0D68044F2DB
:103D70000047CEE00027C4F20107BB4205D040F265
:103D80000047C4F20107BB4205D1CF6824F00C0400
:103D900027F004073C43B34240F3E28044F20006BC
:103DA000C4F20106B34200F0E68044F60006C4F215
:103DB0000106B34200F0DF8044F20046D7E000BFC6
:103DC0000027C4F20107BB4201D0734507D14F69F8
:103DD00025F440658E6945EA870747EA860548F677
:103DE000FF475D60CFF6FF6707EA0C0747EA082741
:103DF0009F614F6809699F631C629F6947F4006770
:103E00009F619F6927F480679F61A6E00027C4F245
:103E10000107BB4201D0734507D14F6925F44055D6
:103E20008E6945EA071747EA06154FF68C775D60FD
:103E3000CFF6FE7707EA0C0747EA0807DF614F680D
:103E40000969DF631C62DF6947F00807DF61DF692A
:103E500027F00407DF61ACE00027C4F20107BB4292
:103E600005D040F20047C4F20107BB4204D14F69BC
:103E700024F4804444EA871448F6FF475C60CFF698
:103E8000FF673E402CF4005746EA0524DC614E688B
:103E900009691E6447EA0E371F62DF6947F400674D
:103EA000DF61DF6927F48067DF6156E00027C4F235
:103EB0000107BB4205D040F20047C4F20107BB42F4
:103EC00004D14F6924F4803444EA07244FF68C77F8
:103ED0005C60CFF6FE7703373E402CF4003746EAAD
:103EE00005045C654E6809699E6547EA0E471F62D6
:103EF0005F6D47F008075F655F6D27F004075F653A
:103F000057E000BF0027C4F20107BB4205D040F2D2
:103F10000047C4F20107BB4204D14F6924F4802456
:103F200044EA872448F6FF475C60CFF6FF6707F551
:103F300040773E402CF4001746EA05245C654E6845
:103F40000969DE6547EA0E571F625F6D47F4006737
:103F50005F655F6D27F480675F65090229E000BF38
:103F60000026C4F20106B34205D040F20046C4F276
:103F70000106B34206D12EF44077D1E905653743F7
:103F800047EA050E4FF68C75C3F804E0CFF6FE75D0
:103F90000CEA050747EA08079F614F6809695F63F4
:103FA0001C629F6947F008079F619F6927F004071B
:103FB0009F611368194311600021002280F83C20A2
:103FC0000846BDE8F081000060B310B5044690F8E3
:103FD0003D0028B9002084F83C00204600F024F879
:103FE000022084F83D002068211D01F021FE0120FF
:103FF00084F8480084F83E0084F83F0084F84000CC
:1040000084F8410084F8420084F8430084F84400B6
:1040100084F8450084F8460084F8470084F83D00A1
:10402000002010BD01207047704700000000000014
:10403000704700000000000071B10A1F4FEAB20291
:10404000032A11D8DFE802F002161E2400F13F0314
:104050001B78012B13D120E090F83E20012A0ED1CD
:10406000022280F83E2032E000F143031B78012B4E
:1040700005D112E000F140031B78012B0DD0012087
:10408000704700BF00F141031B78012B05D0F6E714
:1040900000F142031B78012BF1D1032A08D8DFE895
:1040A00002F0030B0F1300BF022280F83F200EE046
:1040B000022280F843200AE0022280F8402006E035
:1040C000022280F8412002E0022280F842200268A9
:1040D00001F01F00012101FA00F0116A8143116211
:1040E0004FF6FF71C4F200018A42116A40EA0100F2
:1040F000106219DC40F2FF70C4F2000082422FDD32
:1041000040F60000C4F20000824243D040F6004076
:10411000C4F2000082423DD041F60000C4F200002B
:10412000824237D048E000BF43F6FF700021C4F25E
:104130000100C4F20101824244F20000C4F2010015
:1041400018DD82421ED044F60003C4F201039A42F5
:1041500018D044F20043C4F201039A4212D02BE07B
:10416000B2F1804F16D040F20040C4F2000082420B
:1041700010D021E08A4205D040F20043C4F201038E
:104180009A4219D1536C8A4243F40041516418BFDA
:1041900082420BD107219068C0F20101014000204A
:1041A000062918BFB1F5803F06D1704740F20040A4
:1041B000C4F201008242EDD0106840F001001060AE
:1041C000002070470000000041F200010068C4F2C6
:1041D0000001884218BF7047FDF702B900000000D7
:1041E000704700000000000090F88010012901D104
:1041F000022070472421C0F88410026813681168F7
:1042000023F0005321F00101116000214166136089
:104210002022C0F8842080F88010084670470000F3
:104220007047000000000000704700000000000020
:1042300070B590F88020012A02D1022070BD00BF25
:104240002422C0F884200268D0F864E0BEF1000F98
:10425000D2F800C0136823F001031360936823F0C1
:10426000606341EA030191601AD0916848F69C2E80
:104270009368C0F6000E5B0F48F6A425C1F34266B2
:10428000C0F600051EF80340E95C2301B3FBF1F121
:104290001EF80630AE5D1B01B3FBF6F302E000BF73
:1042A00001210123A0F86A102021A0F86830C2F88B
:1042B00000C0C0F88410002180F88010084670BD4E
:1042C00070B590F88020012A02D1022070BD00BF95
:1042D0002422C0F884200268D0F864E0BEF1000F08
:1042E000D2F800C0136823F001031360936823F031
:1042F000604341EA030191601AD0916848F69C2E10
:104300009368C0F6000E5B0F48F6A425C1F3426621
:10431000C0F600051EF80340E95C2301B3FBF1F190
:104320001EF80630AE5D1B01B3FBF6F302E000BFE2
:1043300001210123A0F86A102021A0F86830C2F8FA
:1043400000C0C0F88410002180F88010084670BDBD
:1043500070470000000000007047000000000000EF
:10436000704700000000000070B50446006840F689
:104370002F01C26911402029016886680CD101F023
:10438000200306F080555B1918D0216F002957D003
:104390002046BDE87040084740F60F031A420DD092
:1043A000012340F22015C1F20003C0F2004506EAE5
:1043B000030C01EA050313EB0C0343D1E36E012B5D
:1043C00005D112F0100318BF11F0100326D1D3024B
:1043D0000AD516F4800307D04FF4801101622046FD
:1043E000BDE87040FFF7B8BF130606D501F08003A3
:1043F00006F400069B1940F0D780530602D511F051
:1044000040033CD1100240F1D58011F0804000F013
:10441000D1802046BDE87040FFF79ABF10210162AD
:104420008168490618D4B4F85C10B4F85E20B4F87A
:104430005E30002B1CBF891A5FEA014240F04D81BB
:1044400070BD00BFD30718BF11F4807348D1930724
:1044500006F0010E50D45AE0E26F11684B6899B231
:104460000029EDD0B4F85CC06145E9D2A4F85E3013
:10447000D169B1F5807F00F09A82F0E1206850E8C0
:10448000000F216820F0400041E80002EAB12068F6
:1044900050E8000F216820F0400041E80002A2B17E
:1044A000206850E8000F216820F0400041E8000239
:1044B000002A1FBF206850E8000F216820F040004C
:1044C0001CBF41E80002002AD8D12020C4F8840093
:1044D000002060672046BDE8704000F03DBC00BF92
:1044E00001230362D4F88C3043F00103C4F88C300C
:1044F000930706F0010E0AD5BEF1000F07D0022384
:104500000362D4F88C3043F00403C4F88C305307B2
:104510000AD5BEF1000F07D004230362D4F88C3013
:1045200043F00203C4F88C3013070CD501F02003CC
:1045300053EA0C0307D008230362D4F88C3043F00D
:104540000803C4F88C3013050BD511F0806308D034
:104550004FF400630362D4F88C3043F02003C4F8B6
:104560008C30D4F88C30002B3FF46AAF12F020026C
:104570000AD001F0200106F08052891804D0216F82
:1045800011B1204688472068D4F88C10826802F068
:10459000400201F02801891819D12046FFF7E0FEFA
:1045A0000020C4F88C0070BD616F00297FF4F0AE6C
:1045B00046E700BFD0017FF543AFB1F1FF3FC8BF71
:1045C00070BD2046BDE87040FFF72EBE206850E861
:1045D000000F216820F4907041E80002EAB12068E1
:1045E00050E8000F216820F4907041E80002A2B169
:1045F000206850E8000F216820F4907041E8000224
:10460000002A1FBF206850E8000F216820F4907036
:104610001CBF41E80002002AD8D14FF6FE70CEF64A
:10462000FF70216851E8021F2268014042E802132E
:10463000DBB1216851E8021F2268014042E8021301
:10464000002B1FBF216851E8021F226801401CBFD8
:1046500042E80213002B08D0216851E8021F2268AB
:10466000014042E80213002BDBD1E06E012827D184
:10467000206850E8000F216820F0100041E8000297
:10468000F2B1206850E8000F216820F0100041E8E6
:104690000002002A1FBF206850E8000F216820F0A8
:1046A00010001CBF41E80002002A09D0206850E831
:1046B000000F216820F0100041E80002002AD7D145
:1046C0002020C4F888000021E16620682167816805
:1046D000490640F1BD8084E0206850E8000F226860
:1046E00020F4907042E80003EBB1206850E8000F1E
:1046F000226820F4907042E80003A3B1206850E8DB
:10470000000F226820F4907042E80003002B1FBFC6
:10471000206850E8000F226820F490701CBF42E827
:104720000003002BD8D14FF6FE70CEF6FF70226842
:1047300052E8022F2368024043E80226DEB12268D5
:1047400052E8022F2368024043E80226002E1FBFD2
:10475000226852E8022F236802401CBF43E8022669
:10476000002E08D0226852E8022F2368024043E856
:104770000226002EDBD12020C4F888000020E0664D
:104780002067206850E8000F226820F0100042E8FF
:104790000003F3B1206850E8000F226820F01000F9
:1047A00042E80003002B1FBF206850E8000F22687A
:1047B00020F010001CBF42E80003002B09D0206845
:1047C00050E8000F226820F0100042E80003002BA0
:1047D000D7D189B22046BDE87040FFF721BD00BFA8
:1047E000206850E8020F216820F0400041E80202F2
:1047F000EAB1206850E8020F216820F0400041E84B
:104800000202A2B1206850E8020F216820F04000A7
:1048100041E80202002A1FBF206850E8020F216809
:1048200020F040001CBF41E80202002AD8D1E06F0E
:1048300070B145F67961C0F600010165FCF76CFBCB
:1048400000283FF4FDADE06F016DBDE87040084702
:104850002046BDE87040FFF783BD00BF206850E8E8
:10486000000F216820F4807041E80002EAB120685E
:1048700050E8000F216820F4807041E80002A2B1E6
:10488000206850E8000F216820F4807041E80002A1
:10489000002A1FBF206850E8000F216820F48070B4
:1048A0001CBF41E80002002AD8D1206850E8020F5E
:1048B000216820F0010041E80202F2B1206850E8CE
:1048C000020F216820F0010041E80202002A1FBF08
:1048D000206850E8020F216820F001001CBF41E869
:1048E0000202002A09D0206850E8020F216820F057
:1048F000010041E80202002AD7D1206850E8020FE7
:10490000216820F0400041E80202F2B1206850E83E
:10491000020F216820F0400041E80202002A1FBF78
:10492000206850E8020F216820F040001CBF41E8D9
:104930000202002A09D0206850E8020F216820F006
:10494000400041E80202002AD7D12020C4F88800A4
:104950000020E066206850E8000F216820F0100079
:1049600041E80002F2B1206850E8000F216820F011
:10497000100041E80002002A1FBF206850E8000F25
:10498000216820F010001CBF41E80002002A09D075
:10499000206850E8000F216820F0100041E8000274
:1049A000002AD7D1E06FFCF71FF8B4F85CC0B4F868
:1049B0005E00ACEB000081B22046BDE87040FFF71E
:1049C0002FBC000000000000B0B582B0B0B10446BA
:1049D000D0F8840028B9002084F88000204600F038
:1049E00057F82420C4F884002068016821F00101F0
:1049F0000160204601F074FE012803D1012002B0BD
:104A0000B0BD00BFA06A10B1204601F0C5F9206812
:104A1000416821F490414160816821F02A01816060
:104A2000016841F0010101600020C4F88C00FCF72E
:104A3000CFFC216805460A6812070BD54FF4001118
:104A400000226FF07E40009020462B4602F0F4F9E1
:104A500070B92168086840070ED54FF48001002224
:104A60006FF07E40009020462B4602F0E5F918B129
:104A7000032002B0B0BD00BF2020C4F88400C4F8F9
:104A800088000020E06684F8800002B0B0BD00001D
:104A900010B5B6B000210446CDE93411CDE932118C
:104AA000319102A8BC21FBF7DFFC41F20001206834
:104AB000C4F2010188422DD044F60041C4F2000145
:104AC00088425ED10220029002A8FCF7F5FE08B1F0
:104AD000FBF782FF44F2E0403424C5F6020081680F
:104AE00041F400218160816801F400210191019964
:104AF000016841F0080101600068002100F0080031
:104B00000190C5F6020101980320319001F5406043
:104B1000082125E00120029002A8FCF7CDFE08B193
:104B2000FBF75AFF44F2E0402524C5F60200016974
:104B300041F010010161016901F010010191019939
:104B4000016841F0010101600068072100F00100E7
:104B5000019001984FF4C06031900020C5F602002A
:104B6000359131A9022232920022CDE93322FCF79D
:104B700033FB052100222046FCF7F2FC2046FCF71F
:104B8000DFFC36B010BD000080B5D0F88830202B97
:104B90000AD10123002918BF002A01D1184680BD7F
:104BA00090F88030012B01D1022080BD012380F8D4
:104BB00080300023C36640F60043D0F800C0C5F63D
:104BC00000039C4537D0DCF804301B0233D55CE889
:104BD00000CF02E0036853E800CFD0F800E04CF0CB
:104BE00080634EE8003CBCF1000F24D0036853E81A
:104BF00000CFD0F800E04CF080634EE8003CBCF100
:104C0000000F18D0036853E800CFD0F800E04CF054
:104C100080634EE8003CBCF1000F1FBF036853E8FF
:104C200000CFD0F800E04CF080631CBF4EE8003CA1
:104C3000BCF1000FCED101F0AFFF0023184680BDBC
:104C400010B544F600410068C4F20001884218BF64
:104C500010BD40F22010C2F2004000F108042046CE
:104C600002F026FD40F234600B22C2F200402146E1
:104C7000BDE81040FFF788BF2DE9F04381B004463E
:104C8000D0F8840020280BD10E4600294FF00100F7
:104C90005CD01746002A59D094F88000012803D12F
:104CA000022001B0BDE8F0831D46012084F8800099
:104CB0004FF00009C4F88C902120C4F88400FCF760
:104CC00087FBA4F85470A4F856700746A168B1F5A4
:104CD000805F07D1206900281CBF30464E46B04691
:104CE000064601E04FF0000884F8809009E000BF1C
:104CF000206816F8011B8162B4F856000138A4F848
:104D00005600B4F8560088B18021002220463B4668
:104D1000009502F091F888B9002EE9D138F8020B1D
:104D2000216800266FF35F208862E5E740210022BA
:104D300020463B46009502F07FF818B1032001B0F1
:104D4000BDE8F0832020C4F88400002001B0BDE855
:104D5000F083000000000000704700000000000029
:104D6000FEE700000000000010B58EB048F64C20B1
:104D7000C0F60000016807914168089181680991B7
:104D8000C1680A9101690B9141690C9180690D908C
:104D900007A8002102F0B4F940F27804C2F20044FE
:104DA000206048F63020C0F600000168009141689C
:104DB000019181680291C16803910169049141697F
:104DC0000591806906906846002102F099F96060BB
:104DD0000EB010BD0000000081B044F2E040C5F606
:104DE0000200016841F004010160016801F0040162
:104DF00000910099016841F080010160016801F0B3
:104E0000800100910099016841F001010160016891
:104E100001F0010100910099016841F00201016077
:104E2000016801F0020100910099016841F0100150
:104E30000160016801F0100100910099016841F0E2
:104E400008010160006800F008000090009801B0BF
:104E5000704700000000000080B58CB040F2F820E0
:104E600041F60002C2F2004000210B91C4F20002A0
:104E7000CDE909110791CDE90511CDE90311CDE97E
:104E80000111026040F65F12C0E9012140F2CF72C9
:104E9000C0E9032180218161FEF70AF908B1FBF71F
:104EA0009BFD4FF48050089040F2F82008A9C2F210
:104EB0000040FEF7FDF908B1FBF78EFD40F2F82047
:104EC000C2F20040FFF780F808B1FBF785FD6020D3
:104ED000019000200590CDE9020040F2F82001A9E0
:104EE000C2F200400022FEF70FFE08B1FBF774FD8E
:104EF00040F2F82001A9C2F200400422FEF704FEAD
:104F000008B1FBF769FD40F2F820C2F20040FEF75D
:104F100027FD0CB080BD000010B59AB001A82C216F
:104F200000241994CDE91744CDE91444CDE9124485
:104F3000CDE91044CDE90E44CDE90C44FBF794FAD9
:104F400040F2443044F20001C2F20040C4F20101D8
:104F5000016040F65F11C0E9011440F2CF71446175
:104F6000C0E9031480218161FEF7A2F808B1FBF7C4
:104F700033FD4FF48050169040F2443016A9C2F22F
:104F80000040FEF795F908B1FBF726FD40F24430EA
:104F9000C2F20040FFF718F808B1FBF71DFD40F220
:104FA000443013A9C2F20040002413941594FEF774
:104FB00017F808B1FBF710FD60200CA9CDE90C042F
:104FC00040F244300022C2F200401294CDE90E4477
:104FD000CDE91044FEF798FD08B1FBF7FDFC40F267
:104FE000E7300D9040F244300CA9C2F20040042298
:104FF000FEF78AFD08B1FBF7EFFC00200590CDE934
:105000000300CDE901004FF400510B90CDE90610EB
:1050100040F2443001A9C2F20040FDF791FF08B10F
:10502000FBF7DAFC40F24430C2F20040FEF798FC95
:105030001AB010BD0000000010B592B068462C21D7
:10504000FBF712FA40F2903044F60001C2F2004041
:10505000C4F2010140F2CF72016040F65F1141607D
:1050600000218160C0E90321416180218161FEF757
:105070001FF808B1FBF7B0FC40F29030C2F20040DC
:10508000FEF7A2FF08B1FBF7A7FC60200B9040F2EF
:1050900090300BA9C2F2004000220024CDE90C445C
:1050A000CDE90E44CDE91044FEF72EFD08B1FBF723
:1050B00093FC4FF400506946CDE9050440F290306E
:1050C0000494C2F200400A94CDE90244CDE90044C0
:1050D000FDF736FF08B1FBF77FFC40F29030C2F2DB
:1050E0000040FEF73DFC12B010BD000000000000C3
:1050F00010B58CB040F2AC200021C2F20040002478
:10510000C4F201010294C0E900144FF6FF718460FB
:10511000C0E9031403210F22CDE9031401210B92EE
:10512000CDE90514CDE9091403A9CDE90044C0E98E
:105130000544CDE90724FEF7BBF908B1FBF74CFCA9
:1051400040F2AC206946C2F200400294CDE900442E
:10515000FDF746FF08B1FBF73FFC0CB010BD0000A7
:1051600010B58CB040F2DC300024C2F200404FF0A9
:1051700080410194C0E900144FF6FF718460C0E9DA
:10518000031401218461CDE90314CDE90514CDE9AF
:10519000091403A90B94CDE90744FEF789F908B176
:1051A000FBF71AFC40F2DC306946C2F20040009482
:1051B0000294FDF715FF08B1FBF70EFC0CB010BD13
:1051C00010B58EB040F2284040F20042C2F20040DA
:1051D00000210D91C4F20002CDE90B11CDE90811B7
:1051E000CDE90611CDE90411CDE90211CDE9001197
:1051F000026040F65F12C0E9012140F2CF72C0E9BF
:10520000032180218161FDF753FF08B1FBF7E4FB27
:105210004FF480500A9040F228400AA9C2F20040A0
:10522000FEF746F808B1FBF7D7FB40F22840C2F280
:105230000040FEF7C9FE08B1FBF7CEFB40F2284064
:1052400007A9C2F20040002407940994FDF7C8FEA4
:1052500008B1FBF7C1FB60206946CDE9000440F2CC
:1052600028400422C2F2004002940494FEF74CFC51
:1052700008B1FBF7B1FB40F228406946C2F200409A
:105280000C22FEF741FC08B1FBF7A6FB40F22840D8
:10529000C2F20040FEF764FB0EB010BD000000003B
:1052A00010B58CB040F2744040F60001C2F20040EC
:1052B0000024C4F200010194C0E900144FF6FF710C
:1052C0008460C0E9031401218461CDE90314CDE9B0
:1052D0000514CDE9091403A90B94CDE90744FEF7A1
:1052E000E7F808B1FBF778FB40F274406946C2F278
:1052F000004000940294FDF773FE08B1FBF76CFBCD
:105300000CB010BD0000000010B58CB040F2C040E1
:1053100040F60041C2F200400024C4F200010194B2
:10532000C0E900144FF6FF718460C0E90314012145
:105330008461CDE90314CDE90514CDE9091403A96D
:105340000B94CDE90744FEF7B3F808B1FBF744FB33
:1053500040F2C0406946C2F2004000940294FDF75A
:105360003FFE08B1FBF738FB0CB010BD0000000099
:1053700010B59AB001A82C2100241994CDE9174446
:10538000CDE91444CDE91244CDE91044CDE90E44F1
:10539000CDE90C44FBF768F840F2585040F2004168
:1053A000C2F20040C4F20101016040F65F11C0E9A1
:1053B000011440F2CF714461C0E90314802181617E
:1053C000FDF776FE08B1FBF707FB4FF4805016900F
:1053D00040F2585016A9C2F20040FDF769FF08B12B
:1053E000FBF7FAFA40F25850C2F20040FEF7ECFD2B
:1053F00008B1FBF7F1FA40F2585013A9C2F200408D
:105400000024CDE913441594FDF7EAFD08B1FBF73C
:10541000E3FA60200C9040F2E7300CA9CDE90D04CE
:1054200040F258500C22C2F200401294CDE91044D0
:10543000FEF76AFB08B1FBF7CFFA00200590CDE933
:105440000300CDE901004FF400510890CDE90610AA
:105450004FF000710B90CDE9091040F2585001A9AE
:10546000C2F20040FDF76CFD08B1FBF7B5FA40F25F
:105470005850C2F20040FEF773FA1AB010BD000097
:1054800080B540F2346044F60041C2F20040C4F2FC
:1054900000010C2201604FF4E13141600021C0E9BC
:1054A00002110161C0E90521C0E90711C0E9091134
:1054B000FFF78AFA08B1FBF78FFA40F23460002157
:1054C000C2F20040FEF7FCFE08B1FBF785FA40F29D
:1054D00034600021C2F20040FEF7AAFE08B1FBF7DB
:1054E0007BFA40F23460C2F20040FEF77DFE0028F5
:1054F00008BF80BDBDE88040FBF76EBA0000000029
:1055000080B540F2A45041F20001C2F20040C4F262
:1055100001010C2201604FF4E13141600021C0E93A
:1055200002110161C0E90521C0E90711C0E90911B3
:10553000FFF74AFA08B1FBF74FFA40F2A4500021F6
:10554000C2F20040FEF7BCFE08B1FBF745FA40F29C
:10555000A4500021C2F20040FEF76AFE08B1FBF73A
:105560003BFA40F2A450C2F20040FEF73DFE002894
:1055700008BF80BDBDE88040FBF72EBA00000000E8
:10558000FEE7000000000000FEE700000000000051
:1055900000284DD030EEC01A017890ED062A80ED3B
:1055A000050A90ED070A0029C0ED040A80ED061AED
:1055B00080ED072A80ED080A3ED001297ED1B8EEA1
:1055C000003A90ED025A31EE424A21EE055AA2EE1F
:1055D000031A90ED012A90ED0C3A80ED0A5A30EE54
:1055E000010A24EE021A90ED032A80ED091A20EE3A
:1055F000022A31EE050A90ED0E1A80ED0B2A30EEEC
:10560000020A33EE000A80ED0C0AB4EE410AF1EE14
:1056100010FA4DDCB1EE411AB4EE410AF1EE10FA87
:10562000A8BF7047B0EE410A80ED0C1A704700BF6A
:105630009FED240A704700BF90ED020A90ED034AE7
:1056400090ED0A3AA0EE013A31EE420A90ED012ABD
:1056500021EE021A90ED0D2A80ED091A20EE040ABF
:1056600080ED0A3AB4EE423A80ED0B0AF1EE10FA00
:1056700006DCB1EE422AB4EE423AF1EE10FA03DA59
:10568000B0EE423A80ED0A2A31EE031A30EE010AFA
:1056900090ED0E1A80ED0C0AB4EE410AF1EE10FA0C
:1056A00006DCB1EE411AB4EE410AF1EE10FABDDAB1
:1056B000B0EE410A80ED0C1A704700BF90ED0C0A65
:1056C000704700BF00000000002808BF704701704D
:1056D000011DC0ED0D0A80ED0E0A81EC031A0021B8
:1056E0000162C0E9061170470000000000000000E0
:1056F000EFF30980BFF36F8F154B1A681EF0100F80
:1057000008BF20ED108A20E9F04F10602DE9090054
:105710004FF0500080F31188BFF34F8FBFF36F8FAE
:1057200002F016FB4FF0000080F31188BDE809007D
:1057300019680868B0E8F04F1EF0100F08BFB0EC11
:10574000108A80F30988BFF36F8F704700BF00BFD6
:105750008000002400000000F0B581B044F22C4726
:10576000C5F6020757F8042C02F00302032A03D1FE
:10577000012001B0F0BD00BF054657F82C0C0C46C7
:1057800020F0806047F82C0CFBF722FE064600BF95
:1057900057F82C0C000105D5FBF71AFE801B0228D8
:1057A000F6D964E057F8040CEE6895E80E0020F492
:1057B0007C30012C40EA0130A2F101016FF35F213E
:1057C0004FF47E4202EB432247F8040C92B24FF0B2
:1057D000FE4302EB01004FF4FE012A6901EB064192
:1057E00001F4FE0103EB0262084402F0FE410844AA
:1057F000F8603868696920F0C00040EA010038604C
:105800003868A96920F0200040EA01003860386853
:105810004FF6F87120F0100038603869EA6920EA24
:1058200001004FF4001140EAC2003861386808BF37
:105830004FF4801140F01000002C386008BF4FF486
:10584000002138680843386057F82C0C40F080601D
:1058500047F82C0CFBF7BCFD044600BF57F82C0C96
:10586000000107D4FBF7B4FD001B0328F6D3032087
:1058700001B0F0BD002001B0F0BD0000000000004C
:10588000F0B581B044F22C47C5F6020757F8042C56
:1058900002F00302032A03D1012001B0F0BD00BFD2
:1058A000054657F82C0C0C4620F0805047F82C0C7D
:1058B000FBF78EFD064600BF57F82C0C800005D57F
:1058C000FBF786FD801B0228F6D964E057F8040C2C
:1058D000EE6895E80E0020F07C70012C40EA015043
:1058E000A2F101016FF35F214FF47E4202EB4322EC
:1058F00047F8040C92B24FF0FE4302EB01004FF464
:10590000FE012A6901EB064101F4FE0103EB02628C
:10591000084402F0FE41084478613868696920F45F
:10592000406040EA010038603868A96920F40070DE
:1059300040EA0100386038684FF6F87120F4807052
:105940003860B869EA6920EA01004FF0807140EAE6
:10595000C200B861386808BF4FF4000140F480709D
:10596000002C386008BF4FF4800138680843386065
:1059700057F82C0C40F0805047F82C0CFBF728FD12
:10598000044600BF57F82C0C800007D4FBF720FD1D
:10599000001B0328F6D3032001B0F0BD002001B0A6
:1059A000F0BD00000000000000000000000000004A
:1059B000074B19680868B0E8F04F80F30988BFF317
:1059C0006F8F4FF0000080F31188704700BF00BF59
:1059D0008000002400000000012001F079FBFBE7BB
:1059E00080B54FF0500080F31188BFF36F8FBFF385
:1059F0004F8F02F021FB30B14EF604504FF0805132
:105A0000CEF200000160002080F3118880BD00000C
:105A100070B59CB044F6180440F22C4509A84C21FE
:105A2000C5F60204C5F60005FAF71EFD02200026A1
:105A3000CDE90766CDE90566CDE90366CDE90166E6
:105A4000FBF7CEFD0096286820F00100286028684A
:105A500000F001000090206840F440402060206881
:105A600000F44040009000982068800409D4206829
:105A700080045CBF20685FEA804002D42068800414
:105A8000F2D54FF6DC40CFF6FF70215841F002010D
:105A90002150205800F00200009000980020009053
:105AA000206840F440402060206800F440400090AE
:105AB000286840F001002860286800F0010000908C
:105AC00000982068800409D4206880045CBF2068A6
:105AD0005FEA804002D420688004F2D5012009905A
